{
  "contractName": "StartUpDapp",
  "abi": [
    {
      "inputs": [],
      "stateMutability": "nonpayable",
      "type": "constructor"
    },
    {
      "anonymous": false,
      "inputs": [
        {
          "indexed": true,
          "internalType": "address",
          "name": "owner",
          "type": "address"
        },
        {
          "indexed": true,
          "internalType": "address",
          "name": "approved",
          "type": "address"
        },
        {
          "indexed": true,
          "internalType": "uint256",
          "name": "tokenId",
          "type": "uint256"
        }
      ],
      "name": "Approval",
      "type": "event"
    },
    {
      "anonymous": false,
      "inputs": [
        {
          "indexed": true,
          "internalType": "address",
          "name": "owner",
          "type": "address"
        },
        {
          "indexed": true,
          "internalType": "address",
          "name": "operator",
          "type": "address"
        },
        {
          "indexed": false,
          "internalType": "bool",
          "name": "approved",
          "type": "bool"
        }
      ],
      "name": "ApprovalForAll",
      "type": "event"
    },
    {
      "anonymous": false,
      "inputs": [
        {
          "indexed": true,
          "internalType": "address",
          "name": "previousOwner",
          "type": "address"
        },
        {
          "indexed": true,
          "internalType": "address",
          "name": "newOwner",
          "type": "address"
        }
      ],
      "name": "OwnershipTransferred",
      "type": "event"
    },
    {
      "anonymous": false,
      "inputs": [
        {
          "indexed": false,
          "internalType": "address",
          "name": "owner",
          "type": "address"
        },
        {
          "indexed": false,
          "internalType": "uint256",
          "name": "startupId",
          "type": "uint256"
        },
        {
          "indexed": false,
          "internalType": "string",
          "name": "startupDescription",
          "type": "string"
        },
        {
          "indexed": false,
          "internalType": "uint256",
          "name": "startupAmount",
          "type": "uint256"
        },
        {
          "indexed": false,
          "internalType": "bool",
          "name": "isActive",
          "type": "bool"
        }
      ],
      "name": "StartupFunded",
      "type": "event"
    },
    {
      "anonymous": false,
      "inputs": [
        {
          "indexed": false,
          "internalType": "address",
          "name": "owner",
          "type": "address"
        },
        {
          "indexed": false,
          "internalType": "uint256",
          "name": "startupId",
          "type": "uint256"
        },
        {
          "indexed": false,
          "internalType": "string",
          "name": "startupDescription",
          "type": "string"
        },
        {
          "indexed": false,
          "internalType": "uint256",
          "name": "startupAmount",
          "type": "uint256"
        },
        {
          "indexed": false,
          "internalType": "bool",
          "name": "isActive",
          "type": "bool"
        }
      ],
      "name": "StartupRequested",
      "type": "event"
    },
    {
      "anonymous": false,
      "inputs": [
        {
          "indexed": true,
          "internalType": "address",
          "name": "from",
          "type": "address"
        },
        {
          "indexed": true,
          "internalType": "address",
          "name": "to",
          "type": "address"
        },
        {
          "indexed": true,
          "internalType": "uint256",
          "name": "tokenId",
          "type": "uint256"
        }
      ],
      "name": "Transfer",
      "type": "event"
    },
    {
      "inputs": [
        {
          "internalType": "address",
          "name": "to",
          "type": "address"
        },
        {
          "internalType": "uint256",
          "name": "tokenId",
          "type": "uint256"
        }
      ],
      "name": "approve",
      "outputs": [],
      "stateMutability": "nonpayable",
      "type": "function"
    },
    {
      "inputs": [
        {
          "internalType": "address",
          "name": "owner",
          "type": "address"
        }
      ],
      "name": "balanceOf",
      "outputs": [
        {
          "internalType": "uint256",
          "name": "",
          "type": "uint256"
        }
      ],
      "stateMutability": "view",
      "type": "function",
      "constant": true
    },
    {
      "inputs": [
        {
          "internalType": "uint256",
          "name": "tokenId",
          "type": "uint256"
        }
      ],
      "name": "getApproved",
      "outputs": [
        {
          "internalType": "address",
          "name": "",
          "type": "address"
        }
      ],
      "stateMutability": "view",
      "type": "function",
      "constant": true
    },
    {
      "inputs": [
        {
          "internalType": "address",
          "name": "owner",
          "type": "address"
        },
        {
          "internalType": "address",
          "name": "operator",
          "type": "address"
        }
      ],
      "name": "isApprovedForAll",
      "outputs": [
        {
          "internalType": "bool",
          "name": "",
          "type": "bool"
        }
      ],
      "stateMutability": "view",
      "type": "function",
      "constant": true
    },
    {
      "inputs": [],
      "name": "name",
      "outputs": [
        {
          "internalType": "string",
          "name": "",
          "type": "string"
        }
      ],
      "stateMutability": "view",
      "type": "function",
      "constant": true
    },
    {
      "inputs": [],
      "name": "owner",
      "outputs": [
        {
          "internalType": "address",
          "name": "",
          "type": "address"
        }
      ],
      "stateMutability": "view",
      "type": "function",
      "constant": true
    },
    {
      "inputs": [
        {
          "internalType": "uint256",
          "name": "tokenId",
          "type": "uint256"
        }
      ],
      "name": "ownerOf",
      "outputs": [
        {
          "internalType": "address",
          "name": "",
          "type": "address"
        }
      ],
      "stateMutability": "view",
      "type": "function",
      "constant": true
    },
    {
      "inputs": [],
      "name": "renounceOwnership",
      "outputs": [],
      "stateMutability": "nonpayable",
      "type": "function"
    },
    {
      "inputs": [
        {
          "internalType": "address",
          "name": "from",
          "type": "address"
        },
        {
          "internalType": "address",
          "name": "to",
          "type": "address"
        },
        {
          "internalType": "uint256",
          "name": "tokenId",
          "type": "uint256"
        }
      ],
      "name": "safeTransferFrom",
      "outputs": [],
      "stateMutability": "nonpayable",
      "type": "function"
    },
    {
      "inputs": [
        {
          "internalType": "address",
          "name": "from",
          "type": "address"
        },
        {
          "internalType": "address",
          "name": "to",
          "type": "address"
        },
        {
          "internalType": "uint256",
          "name": "tokenId",
          "type": "uint256"
        },
        {
          "internalType": "bytes",
          "name": "_data",
          "type": "bytes"
        }
      ],
      "name": "safeTransferFrom",
      "outputs": [],
      "stateMutability": "nonpayable",
      "type": "function"
    },
    {
      "inputs": [
        {
          "internalType": "address",
          "name": "operator",
          "type": "address"
        },
        {
          "internalType": "bool",
          "name": "approved",
          "type": "bool"
        }
      ],
      "name": "setApprovalForAll",
      "outputs": [],
      "stateMutability": "nonpayable",
      "type": "function"
    },
    {
      "inputs": [],
      "name": "startupCount",
      "outputs": [
        {
          "internalType": "uint256",
          "name": "",
          "type": "uint256"
        }
      ],
      "stateMutability": "view",
      "type": "function",
      "constant": true
    },
    {
      "inputs": [
        {
          "internalType": "uint256",
          "name": "",
          "type": "uint256"
        }
      ],
      "name": "startups",
      "outputs": [
        {
          "internalType": "address",
          "name": "owner",
          "type": "address"
        },
        {
          "internalType": "uint256",
          "name": "startupId",
          "type": "uint256"
        },
        {
          "internalType": "string",
          "name": "startupDescription",
          "type": "string"
        },
        {
          "internalType": "uint256",
          "name": "startupAmount",
          "type": "uint256"
        },
        {
          "internalType": "bool",
          "name": "isActive",
          "type": "bool"
        }
      ],
      "stateMutability": "view",
      "type": "function",
      "constant": true
    },
    {
      "inputs": [
        {
          "internalType": "bytes4",
          "name": "interfaceId",
          "type": "bytes4"
        }
      ],
      "name": "supportsInterface",
      "outputs": [
        {
          "internalType": "bool",
          "name": "",
          "type": "bool"
        }
      ],
      "stateMutability": "view",
      "type": "function",
      "constant": true
    },
    {
      "inputs": [],
      "name": "symbol",
      "outputs": [
        {
          "internalType": "string",
          "name": "",
          "type": "string"
        }
      ],
      "stateMutability": "view",
      "type": "function",
      "constant": true
    },
    {
      "inputs": [
        {
          "internalType": "uint256",
          "name": "tokenId",
          "type": "uint256"
        }
      ],
      "name": "tokenURI",
      "outputs": [
        {
          "internalType": "string",
          "name": "",
          "type": "string"
        }
      ],
      "stateMutability": "view",
      "type": "function",
      "constant": true
    },
    {
      "inputs": [
        {
          "internalType": "address",
          "name": "from",
          "type": "address"
        },
        {
          "internalType": "address",
          "name": "to",
          "type": "address"
        },
        {
          "internalType": "uint256",
          "name": "tokenId",
          "type": "uint256"
        }
      ],
      "name": "transferFrom",
      "outputs": [],
      "stateMutability": "nonpayable",
      "type": "function"
    },
    {
      "inputs": [
        {
          "internalType": "address",
          "name": "newOwner",
          "type": "address"
        }
      ],
      "name": "transferOwnership",
      "outputs": [],
      "stateMutability": "nonpayable",
      "type": "function"
    },
    {
      "inputs": [
        {
          "internalType": "string",
          "name": "_startupDescription",
          "type": "string"
        },
        {
          "internalType": "uint256",
          "name": "_startupAmount",
          "type": "uint256"
        }
      ],
      "name": "requestFunding",
      "outputs": [],
      "stateMutability": "nonpayable",
      "type": "function"
    },
    {
      "inputs": [
        {
          "internalType": "address",
          "name": "recipient",
          "type": "address"
        },
        {
          "internalType": "string",
          "name": "tokenURI",
          "type": "string"
        }
      ],
      "name": "mintNFT",
      "outputs": [
        {
          "internalType": "uint256",
          "name": "",
          "type": "uint256"
        }
      ],
      "stateMutability": "nonpayable",
      "type": "function"
    },
    {
      "inputs": [
        {
          "internalType": "uint256",
          "name": "_startupId",
          "type": "uint256"
        }
      ],
      "name": "fundStartup",
      "outputs": [],
      "stateMutability": "payable",
      "type": "function",
      "payable": true
    }
  ],
  "bytecode": "0x608060405260006009553480156200001657600080fd5b506040518060400160405280600581526020017f4d794e46540000000000000000000000000000000000000000000000000000008152506040518060400160405280600981526020017f4e4654574f524b4544000000000000000000000000000000000000000000000081525081600090805190602001906200009b929190620001ab565b508060019080519060200190620000b4929190620001ab565b505050620000d7620000cb620000dd60201b60201c565b620000e560201b60201c565b620002c0565b600033905090565b6000600760009054906101000a900473ffffffffffffffffffffffffffffffffffffffff16905081600760006101000a81548173ffffffffffffffffffffffffffffffffffffffff021916908373ffffffffffffffffffffffffffffffffffffffff1602179055508173ffffffffffffffffffffffffffffffffffffffff168173ffffffffffffffffffffffffffffffffffffffff167f8be0079c531659141344cd1fd0a4f28419497f9722a3daafe3b4186f6b6457e060405160405180910390a35050565b828054620001b9906200028a565b90600052602060002090601f016020900481019282620001dd576000855562000229565b82601f10620001f857805160ff191683800117855562000229565b8280016001018555821562000229579182015b82811115620002285782518255916020019190600101906200020b565b5b5090506200023891906200023c565b5090565b5b80821115620002575760008160009055506001016200023d565b5090565b7f4e487b7100000000000000000000000000000000000000000000000000000000600052602260045260246000fd5b60006002820490506001821680620002a357607f821691505b60208210811415620002ba57620002b96200025b565b5b50919050565b6137dc80620002d06000396000f3fe60806040526004361061012a5760003560e01c8063715018a6116100ab578063b88d4fde1161006f578063b88d4fde146103cf578063c87b56dd146103f8578063d91db9a014610435578063e985e9c514610476578063eacabe14146104b3578063f2fde38b146104f05761012a565b8063715018a614610310578063849591c6146103275780638da5cb5b1461035057806395d89b411461037b578063a22cb465146103a65761012a565b806325ce7586116100f257806325ce7586146102265780633dc703821461025157806342842e0e1461026d5780636352211e1461029657806370a08231146102d35761012a565b806301ffc9a71461012f57806306fdde031461016c578063081812fc14610197578063095ea7b3146101d457806323b872dd146101fd575b600080fd5b34801561013b57600080fd5b506101566004803603810190610151919061238a565b610519565b60405161016391906123d2565b60405180910390f35b34801561017857600080fd5b506101816105fb565b60405161018e9190612486565b60405180910390f35b3480156101a357600080fd5b506101be60048036038101906101b991906124de565b61068d565b6040516101cb919061254c565b60405180910390f35b3480156101e057600080fd5b506101fb60048036038101906101f69190612593565b610712565b005b34801561020957600080fd5b50610224600480360381019061021f91906125d3565b61082a565b005b34801561023257600080fd5b5061023b61088a565b6040516102489190612635565b60405180910390f35b61026b600480360381019061026691906124de565b610890565b005b34801561027957600080fd5b50610294600480360381019061028f91906125d3565b610b9c565b005b3480156102a257600080fd5b506102bd60048036038101906102b891906124de565b610bbc565b6040516102ca919061254c565b60405180910390f35b3480156102df57600080fd5b506102fa60048036038101906102f59190612650565b610c6e565b6040516103079190612635565b60405180910390f35b34801561031c57600080fd5b50610325610d26565b005b34801561033357600080fd5b5061034e600480360381019061034991906127b2565b610dae565b005b34801561035c57600080fd5b50610365610f19565b604051610372919061254c565b60405180910390f35b34801561038757600080fd5b50610390610f43565b60405161039d9190612486565b60405180910390f35b3480156103b257600080fd5b506103cd60048036038101906103c8919061283a565b610fd5565b005b3480156103db57600080fd5b506103f660048036038101906103f1919061291b565b610feb565b005b34801561040457600080fd5b5061041f600480360381019061041a91906124de565b61104d565b60405161042c9190612486565b60405180910390f35b34801561044157600080fd5b5061045c600480360381019061045791906124de565b61119f565b60405161046d95949392919061299e565b60405180910390f35b34801561048257600080fd5b5061049d600480360381019061049891906129f8565b61128a565b6040516104aa91906123d2565b60405180910390f35b3480156104bf57600080fd5b506104da60048036038101906104d59190612a38565b61131e565b6040516104e79190612635565b60405180910390f35b3480156104fc57600080fd5b5061051760048036038101906105129190612650565b6113d2565b005b60007f80ac58cd000000000000000000000000000000000000000000000000000000007bffffffffffffffffffffffffffffffffffffffffffffffffffffffff1916827bffffffffffffffffffffffffffffffffffffffffffffffffffffffff191614806105e457507f5b5e139f000000000000000000000000000000000000000000000000000000007bffffffffffffffffffffffffffffffffffffffffffffffffffffffff1916827bffffffffffffffffffffffffffffffffffffffffffffffffffffffff1916145b806105f457506105f3826114ca565b5b9050919050565b60606000805461060a90612ac3565b80601f016020809104026020016040519081016040528092919081815260200182805461063690612ac3565b80156106835780601f1061065857610100808354040283529160200191610683565b820191906000526020600020905b81548152906001019060200180831161066657829003601f168201915b5050505050905090565b600061069882611534565b6106d7576040517f08c379a00000000000000000000000000000000000000000000000000000000081526004016106ce90612b67565b60405180910390fd5b6004600083815260200190815260200160002060009054906101000a900473ffffffffffffffffffffffffffffffffffffffff169050919050565b600061071d82610bbc565b90508073ffffffffffffffffffffffffffffffffffffffff168373ffffffffffffffffffffffffffffffffffffffff16141561078e576040517f08c379a000000000000000000000000000000000000000000000000000000000815260040161078590612bf9565b60405180910390fd5b8073ffffffffffffffffffffffffffffffffffffffff166107ad6115a0565b73ffffffffffffffffffffffffffffffffffffffff1614806107dc57506107db816107d66115a0565b61128a565b5b61081b576040517f08c379a000000000000000000000000000000000000000000000000000000000815260040161081290612c8b565b60405180910390fd5b61082583836115a8565b505050565b61083b6108356115a0565b82611661565b61087a576040517f08c379a000000000000000000000000000000000000000000000000000000000815260040161087190612d1d565b60405180910390fd5b61088583838361173f565b505050565b60095481565b6000600a60008381526020019081526020016000206040518060a00160405290816000820160009054906101000a900473ffffffffffffffffffffffffffffffffffffffff1673ffffffffffffffffffffffffffffffffffffffff1673ffffffffffffffffffffffffffffffffffffffff1681526020016001820154815260200160028201805461092090612ac3565b80601f016020809104026020016040519081016040528092919081815260200182805461094c90612ac3565b80156109995780601f1061096e57610100808354040283529160200191610999565b820191906000526020600020905b81548152906001019060200180831161097c57829003601f168201915b50505050508152602001600382015481526020016004820160009054906101000a900460ff16151515158152505090506000816000015190506000831180156109e457506009548311155b6109ed57600080fd5b81606001513410156109fe57600080fd5b816080015115610a0d57600080fd5b8073ffffffffffffffffffffffffffffffffffffffff163373ffffffffffffffffffffffffffffffffffffffff161415610a4657600080fd5b600182608001901515908115158152505081600a600085815260200190815260200160002060008201518160000160006101000a81548173ffffffffffffffffffffffffffffffffffffffff021916908373ffffffffffffffffffffffffffffffffffffffff160217905550602082015181600101556040820151816002019080519060200190610ad892919061227b565b506060820151816003015560808201518160040160006101000a81548160ff0219169083151502179055509050508073ffffffffffffffffffffffffffffffffffffffff166108fc349081150290604051600060405180830381858888f19350505050158015610b4c573d6000803e3d6000fd5b507fa2b3176096dc83aaf51f089fb0bd73951715d70efc540cbf66e4ad70f388e6c133600954846040015185606001516001604051610b8f95949392919061299e565b60405180910390a1505050565b610bb783838360405180602001604052806000815250610feb565b505050565b6000806002600084815260200190815260200160002060009054906101000a900473ffffffffffffffffffffffffffffffffffffffff169050600073ffffffffffffffffffffffffffffffffffffffff168173ffffffffffffffffffffffffffffffffffffffff161415610c65576040517f08c379a0000000000000000000000000000000000000000000000000000000008152600401610c5c90612daf565b60405180910390fd5b80915050919050565b60008073ffffffffffffffffffffffffffffffffffffffff168273ffffffffffffffffffffffffffffffffffffffff161415610cdf576040517f08c379a0000000000000000000000000000000000000000000000000000000008152600401610cd690612e41565b60405180910390fd5b600360008373ffffffffffffffffffffffffffffffffffffffff1673ffffffffffffffffffffffffffffffffffffffff168152602001908152602001600020549050919050565b610d2e6115a0565b73ffffffffffffffffffffffffffffffffffffffff16610d4c610f19565b73ffffffffffffffffffffffffffffffffffffffff1614610da2576040517f08c379a0000000000000000000000000000000000000000000000000000000008152600401610d9990612ead565b60405180910390fd5b610dac60006119a6565b565b6000825111610dbc57600080fd5b60008111610dc957600080fd5b60096000815480929190610ddc90612efc565b91905055506040518060a001604052803373ffffffffffffffffffffffffffffffffffffffff168152602001600954815260200183815260200182815260200160001515815250600a6000600954815260200190815260200160002060008201518160000160006101000a81548173ffffffffffffffffffffffffffffffffffffffff021916908373ffffffffffffffffffffffffffffffffffffffff160217905550602082015181600101556040820151816002019080519060200190610ea592919061227b565b506060820151816003015560808201518160040160006101000a81548160ff0219169083151502179055509050507f3ea119ee3dbc6627c0beeed4546a51ea7c70f51617c844619d92fff9fed7748b3360095484846000604051610f0d95949392919061299e565b60405180910390a15050565b6000600760009054906101000a900473ffffffffffffffffffffffffffffffffffffffff16905090565b606060018054610f5290612ac3565b80601f0160208091040260200160405190810160405280929190818152602001828054610f7e90612ac3565b8015610fcb5780601f10610fa057610100808354040283529160200191610fcb565b820191906000526020600020905b815481529060010190602001808311610fae57829003601f168201915b5050505050905090565b610fe7610fe06115a0565b8383611a6c565b5050565b610ffc610ff66115a0565b83611661565b61103b576040517f08c379a000000000000000000000000000000000000000000000000000000000815260040161103290612d1d565b60405180910390fd5b61104784848484611bd9565b50505050565b606061105882611534565b611097576040517f08c379a000000000000000000000000000000000000000000000000000000000815260040161108e90612fb7565b60405180910390fd5b60006006600084815260200190815260200160002080546110b790612ac3565b80601f01602080910402602001604051908101604052809291908181526020018280546110e390612ac3565b80156111305780601f1061110557610100808354040283529160200191611130565b820191906000526020600020905b81548152906001019060200180831161111357829003601f168201915b505050505090506000611141611c35565b905060008151141561115757819250505061119a565b60008251111561118c578082604051602001611174929190613013565b6040516020818303038152906040529250505061119a565b61119584611c4c565b925050505b919050565b600a6020528060005260406000206000915090508060000160009054906101000a900473ffffffffffffffffffffffffffffffffffffffff16908060010154908060020180546111ee90612ac3565b80601f016020809104026020016040519081016040528092919081815260200182805461121a90612ac3565b80156112675780601f1061123c57610100808354040283529160200191611267565b820191906000526020600020905b81548152906001019060200180831161124a57829003601f168201915b5050505050908060030154908060040160009054906101000a900460ff16905085565b6000600560008473ffffffffffffffffffffffffffffffffffffffff1673ffffffffffffffffffffffffffffffffffffffff16815260200190815260200160002060008373ffffffffffffffffffffffffffffffffffffffff1673ffffffffffffffffffffffffffffffffffffffff16815260200190815260200160002060009054906101000a900460ff16905092915050565b60006113286115a0565b73ffffffffffffffffffffffffffffffffffffffff16611346610f19565b73ffffffffffffffffffffffffffffffffffffffff161461139c576040517f08c379a000000000000000000000000000000000000000000000000000000000815260040161139390612ead565b60405180910390fd5b6113a66008611cf3565b60006113b26008611d09565b90506113be8482611d17565b6113c88184611ef1565b8091505092915050565b6113da6115a0565b73ffffffffffffffffffffffffffffffffffffffff166113f8610f19565b73ffffffffffffffffffffffffffffffffffffffff161461144e576040517f08c379a000000000000000000000000000000000000000000000000000000000815260040161144590612ead565b60405180910390fd5b600073ffffffffffffffffffffffffffffffffffffffff168173ffffffffffffffffffffffffffffffffffffffff1614156114be576040517f08c379a00000000000000000000000000000000000000000000000000000000081526004016114b5906130a9565b60405180910390fd5b6114c7816119a6565b50565b60007f01ffc9a7000000000000000000000000000000000000000000000000000000007bffffffffffffffffffffffffffffffffffffffffffffffffffffffff1916827bffffffffffffffffffffffffffffffffffffffffffffffffffffffff1916149050919050565b60008073ffffffffffffffffffffffffffffffffffffffff166002600084815260200190815260200160002060009054906101000a900473ffffffffffffffffffffffffffffffffffffffff1673ffffffffffffffffffffffffffffffffffffffff1614159050919050565b600033905090565b816004600083815260200190815260200160002060006101000a81548173ffffffffffffffffffffffffffffffffffffffff021916908373ffffffffffffffffffffffffffffffffffffffff160217905550808273ffffffffffffffffffffffffffffffffffffffff1661161b83610bbc565b73ffffffffffffffffffffffffffffffffffffffff167f8c5be1e5ebec7d5bd14f71427d1e84f3dd0314c0f7b2291e5b200ac8c7c3b92560405160405180910390a45050565b600061166c82611534565b6116ab576040517f08c379a00000000000000000000000000000000000000000000000000000000081526004016116a29061313b565b60405180910390fd5b60006116b683610bbc565b90508073ffffffffffffffffffffffffffffffffffffffff168473ffffffffffffffffffffffffffffffffffffffff16148061172557508373ffffffffffffffffffffffffffffffffffffffff1661170d8461068d565b73ffffffffffffffffffffffffffffffffffffffff16145b806117365750611735818561128a565b5b91505092915050565b8273ffffffffffffffffffffffffffffffffffffffff1661175f82610bbc565b73ffffffffffffffffffffffffffffffffffffffff16146117b5576040517f08c379a00000000000000000000000000000000000000000000000000000000081526004016117ac906131cd565b60405180910390fd5b600073ffffffffffffffffffffffffffffffffffffffff168273ffffffffffffffffffffffffffffffffffffffff161415611825576040517f08c379a000000000000000000000000000000000000000000000000000000000815260040161181c9061325f565b60405180910390fd5b611830838383611f65565b61183b6000826115a8565b6001600360008573ffffffffffffffffffffffffffffffffffffffff1673ffffffffffffffffffffffffffffffffffffffff168152602001908152602001600020600082825461188b919061327f565b925050819055506001600360008473ffffffffffffffffffffffffffffffffffffffff1673ffffffffffffffffffffffffffffffffffffffff16815260200190815260200160002060008282546118e291906132b3565b92505081905550816002600083815260200190815260200160002060006101000a81548173ffffffffffffffffffffffffffffffffffffffff021916908373ffffffffffffffffffffffffffffffffffffffff160217905550808273ffffffffffffffffffffffffffffffffffffffff168473ffffffffffffffffffffffffffffffffffffffff167fddf252ad1be2c89b69c2b068fc378daa952ba7f163c4a11628f55a4df523b3ef60405160405180910390a46119a1838383611f6a565b505050565b6000600760009054906101000a900473ffffffffffffffffffffffffffffffffffffffff16905081600760006101000a81548173ffffffffffffffffffffffffffffffffffffffff021916908373ffffffffffffffffffffffffffffffffffffffff1602179055508173ffffffffffffffffffffffffffffffffffffffff168173ffffffffffffffffffffffffffffffffffffffff167f8be0079c531659141344cd1fd0a4f28419497f9722a3daafe3b4186f6b6457e060405160405180910390a35050565b8173ffffffffffffffffffffffffffffffffffffffff168373ffffffffffffffffffffffffffffffffffffffff161415611adb576040517f08c379a0000000000000000000000000000000000000000000000000000000008152600401611ad290613355565b60405180910390fd5b80600560008573ffffffffffffffffffffffffffffffffffffffff1673ffffffffffffffffffffffffffffffffffffffff16815260200190815260200160002060008473ffffffffffffffffffffffffffffffffffffffff1673ffffffffffffffffffffffffffffffffffffffff16815260200190815260200160002060006101000a81548160ff0219169083151502179055508173ffffffffffffffffffffffffffffffffffffffff168373ffffffffffffffffffffffffffffffffffffffff167f17307eab39ab6107e8899845ad3d59bd9653f200f220920489ca2b5937696c3183604051611bcc91906123d2565b60405180910390a3505050565b611be484848461173f565b611bf084848484611f6f565b611c2f576040517f08c379a0000000000000000000000000000000000000000000000000000000008152600401611c26906133e7565b60405180910390fd5b50505050565b606060405180602001604052806000815250905090565b6060611c5782611534565b611c96576040517f08c379a0000000000000000000000000000000000000000000000000000000008152600401611c8d90613479565b60405180910390fd5b6000611ca0611c35565b90506000815111611cc05760405180602001604052806000815250611ceb565b80611cca846120f7565b604051602001611cdb929190613013565b6040516020818303038152906040525b915050919050565b6001816000016000828254019250508190555050565b600081600001549050919050565b600073ffffffffffffffffffffffffffffffffffffffff168273ffffffffffffffffffffffffffffffffffffffff161415611d87576040517f08c379a0000000000000000000000000000000000000000000000000000000008152600401611d7e906134e5565b60405180910390fd5b611d9081611534565b15611dd0576040517f08c379a0000000000000000000000000000000000000000000000000000000008152600401611dc790613551565b60405180910390fd5b611ddc60008383611f65565b6001600360008473ffffffffffffffffffffffffffffffffffffffff1673ffffffffffffffffffffffffffffffffffffffff1681526020019081526020016000206000828254611e2c91906132b3565b92505081905550816002600083815260200190815260200160002060006101000a81548173ffffffffffffffffffffffffffffffffffffffff021916908373ffffffffffffffffffffffffffffffffffffffff160217905550808273ffffffffffffffffffffffffffffffffffffffff16600073ffffffffffffffffffffffffffffffffffffffff167fddf252ad1be2c89b69c2b068fc378daa952ba7f163c4a11628f55a4df523b3ef60405160405180910390a4611eed60008383611f6a565b5050565b611efa82611534565b611f39576040517f08c379a0000000000000000000000000000000000000000000000000000000008152600401611f30906135e3565b60405180910390fd5b80600660008481526020019081526020016000209080519060200190611f6092919061227b565b505050565b505050565b505050565b6000611f908473ffffffffffffffffffffffffffffffffffffffff16612258565b156120ea578373ffffffffffffffffffffffffffffffffffffffff1663150b7a02611fb96115a0565b8786866040518563ffffffff1660e01b8152600401611fdb9493929190613658565b6020604051808303816000875af192505050801561201757506040513d601f19601f8201168201806040525081019061201491906136b9565b60015b61209a573d8060008114612047576040519150601f19603f3d011682016040523d82523d6000602084013e61204c565b606091505b50600081511415612092576040517f08c379a0000000000000000000000000000000000000000000000000000000008152600401612089906133e7565b60405180910390fd5b805181602001fd5b63150b7a0260e01b7bffffffffffffffffffffffffffffffffffffffffffffffffffffffff1916817bffffffffffffffffffffffffffffffffffffffffffffffffffffffff1916149150506120ef565b600190505b949350505050565b6060600082141561213f576040518060400160405280600181526020017f30000000000000000000000000000000000000000000000000000000000000008152509050612253565b600082905060005b6000821461217157808061215a90612efc565b915050600a8261216a9190613715565b9150612147565b60008167ffffffffffffffff81111561218d5761218c612687565b5b6040519080825280601f01601f1916602001820160405280156121bf5781602001600182028036833780820191505090505b5090505b6000851461224c576001826121d8919061327f565b9150600a856121e79190613746565b60306121f391906132b3565b60f81b81838151811061220957612208613777565b5b60200101907effffffffffffffffffffffffffffffffffffffffffffffffffffffffffffff1916908160001a905350600a856122459190613715565b94506121c3565b8093505050505b919050565b6000808273ffffffffffffffffffffffffffffffffffffffff163b119050919050565b82805461228790612ac3565b90600052602060002090601f0160209004810192826122a957600085556122f0565b82601f106122c257805160ff19168380011785556122f0565b828001600101855582156122f0579182015b828111156122ef5782518255916020019190600101906122d4565b5b5090506122fd9190612301565b5090565b5b8082111561231a576000816000905550600101612302565b5090565b6000604051905090565b600080fd5b600080fd5b60007fffffffff0000000000000000000000000000000000000000000000000000000082169050919050565b61236781612332565b811461237257600080fd5b50565b6000813590506123848161235e565b92915050565b6000602082840312156123a05761239f612328565b5b60006123ae84828501612375565b91505092915050565b60008115159050919050565b6123cc816123b7565b82525050565b60006020820190506123e760008301846123c3565b92915050565b600081519050919050565b600082825260208201905092915050565b60005b8381101561242757808201518184015260208101905061240c565b83811115612436576000848401525b50505050565b6000601f19601f8301169050919050565b6000612458826123ed565b61246281856123f8565b9350612472818560208601612409565b61247b8161243c565b840191505092915050565b600060208201905081810360008301526124a0818461244d565b905092915050565b6000819050919050565b6124bb816124a8565b81146124c657600080fd5b50565b6000813590506124d8816124b2565b92915050565b6000602082840312156124f4576124f3612328565b5b6000612502848285016124c9565b91505092915050565b600073ffffffffffffffffffffffffffffffffffffffff82169050919050565b60006125368261250b565b9050919050565b6125468161252b565b82525050565b6000602082019050612561600083018461253d565b92915050565b6125708161252b565b811461257b57600080fd5b50565b60008135905061258d81612567565b92915050565b600080604083850312156125aa576125a9612328565b5b60006125b88582860161257e565b92505060206125c9858286016124c9565b9150509250929050565b6000806000606084860312156125ec576125eb612328565b5b60006125fa8682870161257e565b935050602061260b8682870161257e565b925050604061261c868287016124c9565b9150509250925092565b61262f816124a8565b82525050565b600060208201905061264a6000830184612626565b92915050565b60006020828403121561266657612665612328565b5b60006126748482850161257e565b91505092915050565b600080fd5b600080fd5b7f4e487b7100000000000000000000000000000000000000000000000000000000600052604160045260246000fd5b6126bf8261243c565b810181811067ffffffffffffffff821117156126de576126dd612687565b5b80604052505050565b60006126f161231e565b90506126fd82826126b6565b919050565b600067ffffffffffffffff82111561271d5761271c612687565b5b6127268261243c565b9050602081019050919050565b82818337600083830152505050565b600061275561275084612702565b6126e7565b90508281526020810184848401111561277157612770612682565b5b61277c848285612733565b509392505050565b600082601f8301126127995761279861267d565b5b81356127a9848260208601612742565b91505092915050565b600080604083850312156127c9576127c8612328565b5b600083013567ffffffffffffffff8111156127e7576127e661232d565b5b6127f385828601612784565b9250506020612804858286016124c9565b9150509250929050565b612817816123b7565b811461282257600080fd5b50565b6000813590506128348161280e565b92915050565b6000806040838503121561285157612850612328565b5b600061285f8582860161257e565b925050602061287085828601612825565b9150509250929050565b600067ffffffffffffffff82111561289557612894612687565b5b61289e8261243c565b9050602081019050919050565b60006128be6128b98461287a565b6126e7565b9050828152602081018484840111156128da576128d9612682565b5b6128e5848285612733565b509392505050565b600082601f8301126129025761290161267d565b5b81356129128482602086016128ab565b91505092915050565b6000806000806080858703121561293557612934612328565b5b60006129438782880161257e565b94505060206129548782880161257e565b9350506040612965878288016124c9565b925050606085013567ffffffffffffffff8111156129865761298561232d565b5b612992878288016128ed565b91505092959194509250565b600060a0820190506129b3600083018861253d565b6129c06020830187612626565b81810360408301526129d2818661244d565b90506129e16060830185612626565b6129ee60808301846123c3565b9695505050505050565b60008060408385031215612a0f57612a0e612328565b5b6000612a1d8582860161257e565b9250506020612a2e8582860161257e565b9150509250929050565b60008060408385031215612a4f57612a4e612328565b5b6000612a5d8582860161257e565b925050602083013567ffffffffffffffff811115612a7e57612a7d61232d565b5b612a8a85828601612784565b9150509250929050565b7f4e487b7100000000000000000000000000000000000000000000000000000000600052602260045260246000fd5b60006002820490506001821680612adb57607f821691505b60208210811415612aef57612aee612a94565b5b50919050565b7f4552433732313a20617070726f76656420717565727920666f72206e6f6e657860008201527f697374656e7420746f6b656e0000000000000000000000000000000000000000602082015250565b6000612b51602c836123f8565b9150612b5c82612af5565b604082019050919050565b60006020820190508181036000830152612b8081612b44565b9050919050565b7f4552433732313a20617070726f76616c20746f2063757272656e74206f776e6560008201527f7200000000000000000000000000000000000000000000000000000000000000602082015250565b6000612be36021836123f8565b9150612bee82612b87565b604082019050919050565b60006020820190508181036000830152612c1281612bd6565b9050919050565b7f4552433732313a20617070726f76652063616c6c6572206973206e6f74206f7760008201527f6e6572206e6f7220617070726f76656420666f7220616c6c0000000000000000602082015250565b6000612c756038836123f8565b9150612c8082612c19565b604082019050919050565b60006020820190508181036000830152612ca481612c68565b9050919050565b7f4552433732313a207472616e736665722063616c6c6572206973206e6f74206f60008201527f776e6572206e6f7220617070726f766564000000000000000000000000000000602082015250565b6000612d076031836123f8565b9150612d1282612cab565b604082019050919050565b60006020820190508181036000830152612d3681612cfa565b9050919050565b7f4552433732313a206f776e657220717565727920666f72206e6f6e657869737460008201527f656e7420746f6b656e0000000000000000000000000000000000000000000000602082015250565b6000612d996029836123f8565b9150612da482612d3d565b604082019050919050565b60006020820190508181036000830152612dc881612d8c565b9050919050565b7f4552433732313a2062616c616e636520717565727920666f7220746865207a6560008201527f726f206164647265737300000000000000000000000000000000000000000000602082015250565b6000612e2b602a836123f8565b9150612e3682612dcf565b604082019050919050565b60006020820190508181036000830152612e5a81612e1e565b9050919050565b7f4f776e61626c653a2063616c6c6572206973206e6f7420746865206f776e6572600082015250565b6000612e976020836123f8565b9150612ea282612e61565b602082019050919050565b60006020820190508181036000830152612ec681612e8a565b9050919050565b7f4e487b7100000000000000000000000000000000000000000000000000000000600052601160045260246000fd5b6000612f07826124a8565b91507fffffffffffffffffffffffffffffffffffffffffffffffffffffffffffffffff821415612f3a57612f39612ecd565b5b600182019050919050565b7f45524337323155524953746f726167653a2055524920717565727920666f722060008201527f6e6f6e6578697374656e7420746f6b656e000000000000000000000000000000602082015250565b6000612fa16031836123f8565b9150612fac82612f45565b604082019050919050565b60006020820190508181036000830152612fd081612f94565b9050919050565b600081905092915050565b6000612fed826123ed565b612ff78185612fd7565b9350613007818560208601612409565b80840191505092915050565b600061301f8285612fe2565b915061302b8284612fe2565b91508190509392505050565b7f4f776e61626c653a206e6577206f776e657220697320746865207a65726f206160008201527f6464726573730000000000000000000000000000000000000000000000000000602082015250565b60006130936026836123f8565b915061309e82613037565b604082019050919050565b600060208201905081810360008301526130c281613086565b9050919050565b7f4552433732313a206f70657261746f7220717565727920666f72206e6f6e657860008201527f697374656e7420746f6b656e0000000000000000000000000000000000000000602082015250565b6000613125602c836123f8565b9150613130826130c9565b604082019050919050565b6000602082019050818103600083015261315481613118565b9050919050565b7f4552433732313a207472616e736665722066726f6d20696e636f72726563742060008201527f6f776e6572000000000000000000000000000000000000000000000000000000602082015250565b60006131b76025836123f8565b91506131c28261315b565b604082019050919050565b600060208201905081810360008301526131e6816131aa565b9050919050565b7f4552433732313a207472616e7366657220746f20746865207a65726f2061646460008201527f7265737300000000000000000000000000000000000000000000000000000000602082015250565b60006132496024836123f8565b9150613254826131ed565b604082019050919050565b600060208201905081810360008301526132788161323c565b9050919050565b600061328a826124a8565b9150613295836124a8565b9250828210156132a8576132a7612ecd565b5b828203905092915050565b60006132be826124a8565b91506132c9836124a8565b9250827fffffffffffffffffffffffffffffffffffffffffffffffffffffffffffffffff038211156132fe576132fd612ecd565b5b828201905092915050565b7f4552433732313a20617070726f766520746f2063616c6c657200000000000000600082015250565b600061333f6019836123f8565b915061334a82613309565b602082019050919050565b6000602082019050818103600083015261336e81613332565b9050919050565b7f4552433732313a207472616e7366657220746f206e6f6e20455243373231526560008201527f63656976657220696d706c656d656e7465720000000000000000000000000000602082015250565b60006133d16032836123f8565b91506133dc82613375565b604082019050919050565b60006020820190508181036000830152613400816133c4565b9050919050565b7f4552433732314d657461646174613a2055524920717565727920666f72206e6f60008201527f6e6578697374656e7420746f6b656e0000000000000000000000000000000000602082015250565b6000613463602f836123f8565b915061346e82613407565b604082019050919050565b6000602082019050818103600083015261349281613456565b9050919050565b7f4552433732313a206d696e7420746f20746865207a65726f2061646472657373600082015250565b60006134cf6020836123f8565b91506134da82613499565b602082019050919050565b600060208201905081810360008301526134fe816134c2565b9050919050565b7f4552433732313a20746f6b656e20616c7265616479206d696e74656400000000600082015250565b600061353b601c836123f8565b915061354682613505565b602082019050919050565b6000602082019050818103600083015261356a8161352e565b9050919050565b7f45524337323155524953746f726167653a2055524920736574206f66206e6f6e60008201527f6578697374656e7420746f6b656e000000000000000000000000000000000000602082015250565b60006135cd602e836123f8565b91506135d882613571565b604082019050919050565b600060208201905081810360008301526135fc816135c0565b9050919050565b600081519050919050565b600082825260208201905092915050565b600061362a82613603565b613634818561360e565b9350613644818560208601612409565b61364d8161243c565b840191505092915050565b600060808201905061366d600083018761253d565b61367a602083018661253d565b6136876040830185612626565b8181036060830152613699818461361f565b905095945050505050565b6000815190506136b38161235e565b92915050565b6000602082840312156136cf576136ce612328565b5b60006136dd848285016136a4565b91505092915050565b7f4e487b7100000000000000000000000000000000000000000000000000000000600052601260045260246000fd5b6000613720826124a8565b915061372b836124a8565b92508261373b5761373a6136e6565b5b828204905092915050565b6000613751826124a8565b915061375c836124a8565b92508261376c5761376b6136e6565b5b828206905092915050565b7f4e487b7100000000000000000000000000000000000000000000000000000000600052603260045260246000fdfea264697066735822122048a7ed1c7520b3acea9f8038beeec6896b5de547e78cadb13b89817bb5747df964736f6c634300080a0033",
  "immutableReferences": {},
  "source": "// SPDX-License-Identifier: MIT\npragma solidity ^ 0.8.10;\nimport \"@openzeppelin/contracts/token/ERC721/ERC721.sol\";\nimport \"@openzeppelin/contracts/utils/Counters.sol\";\nimport \"@openzeppelin/contracts/access/Ownable.sol\";\nimport \"@openzeppelin/contracts/token/ERC721/extensions/ERC721URIStorage.sol\";\n\ncontract StartUpDapp is ERC721URIStorage, Ownable {\n  using Counters for Counters.Counter;\n  Counters.Counter private _tokenIds;\n  \n  //address public owner = msg.sender;\n  uint256 public startupCount = 0;\n  mapping(uint256 => Startup) public startups;\n  \n  constructor() ERC721(\"MyNFT\", \"NFTWORKED\") {}\n\n  struct Startup { // the startup attributes\n    address owner; // the owner of the startup\n    uint256 startupId; // unique id for each startup\n    string startupDescription; // The Description of the Startup\n    uint256 startupAmount; //Startup amount requested\n    bool isActive; // is the startup active?\n  }\n  \n  event StartupRequested(\n    address owner, \n    uint256 startupId, \n    string startupDescription, \n    uint256 startupAmount, \n    bool isActive\n    );\n\n  event StartupFunded(\n    address owner, \n    uint256 startupId, \n    string startupDescription, \n    uint256 startupAmount, \n    bool isActive\n    );\n\n  //1. Owner requests a startup\n  function requestFunding(string memory _startupDescription, uint256 _startupAmount) public {\n    //Require a valid description\n    require(bytes(_startupDescription).length > 0);\n    //require a valid startup amount\n    require(_startupAmount > 0);\n    //increment startup count\n    startupCount++;\n    //create the startup\n    startups[startupCount] = Startup(msg.sender, startupCount, _startupDescription, _startupAmount, false);\n    //trigger an evant\n    emit StartupRequested(msg.sender, startupCount, _startupDescription, _startupAmount, false);\n  }\n\n  function mintNFT(address recipient, string memory tokenURI)public onlyOwner returns (uint256) {\n    _tokenIds.increment();\n\n    uint256 newItemId = _tokenIds.current();\n    _mint(recipient, newItemId);\n    _setTokenURI(newItemId, tokenURI);\n\n    return newItemId;\n}\n  //2. Funder accepts startup fund request\n  function fundStartup(uint _startupId) public payable {\n    //Get the startup\n    Startup memory _startup = startups[_startupId];\n    //Fetch the owner\n    address _owner = _startup.owner;\n    //Require the startup has a valid id\n    require(_startupId > 0 && _startupId <= startupCount);\n    //Require that there is enough ether to fund the startup\n    require(msg.value >= _startup.startupAmount);\n    //Require that the startup has not been funded already\n    require(!_startup.isActive);\n    //Require that the funder is not the owner\n    require(msg.sender != _owner);\n    //Mark as funded and active\n    _startup.isActive = true;\n    //Update the startup\n    startups[_startupId] = _startup;\n    //Pay the owner by sending the startup amount requested\n    payable(_owner).transfer(msg.value);\n    //Trigger an event  \n    emit StartupFunded(msg.sender, startupCount, _startup.startupDescription, _startup.startupAmount, true);\n  }\n    \n  \n}\n\n\n",
  "sourcePath": "/Users/hayleealyssalyn.anderson/Develop/repos/oink-dapp-hackathon/OinkDapp/Oink/src/contracts/StartUpDapp.sol",
  "compiler": {
    "name": "solc",
    "version": "0.8.10+commit.fc410830.Emscripten.clang"
  },
  "schemaVersion": "3.4.3",
  "updatedAt": "2022-04-08T02:13:07.479Z",
  "networkType": "ethereum",
  "devdoc": {
    "kind": "dev",
    "methods": {
      "approve(address,uint256)": {
        "details": "See {IERC721-approve}."
      },
      "balanceOf(address)": {
        "details": "See {IERC721-balanceOf}."
      },
      "getApproved(uint256)": {
        "details": "See {IERC721-getApproved}."
      },
      "isApprovedForAll(address,address)": {
        "details": "See {IERC721-isApprovedForAll}."
      },
      "name()": {
        "details": "See {IERC721Metadata-name}."
      },
      "owner()": {
        "details": "Returns the address of the current owner."
      },
      "ownerOf(uint256)": {
        "details": "See {IERC721-ownerOf}."
      },
      "renounceOwnership()": {
        "details": "Leaves the contract without owner. It will not be possible to call `onlyOwner` functions anymore. Can only be called by the current owner. NOTE: Renouncing ownership will leave the contract without an owner, thereby removing any functionality that is only available to the owner."
      },
      "safeTransferFrom(address,address,uint256)": {
        "details": "See {IERC721-safeTransferFrom}."
      },
      "safeTransferFrom(address,address,uint256,bytes)": {
        "details": "See {IERC721-safeTransferFrom}."
      },
      "setApprovalForAll(address,bool)": {
        "details": "See {IERC721-setApprovalForAll}."
      },
      "supportsInterface(bytes4)": {
        "details": "See {IERC165-supportsInterface}."
      },
      "symbol()": {
        "details": "See {IERC721Metadata-symbol}."
      },
      "tokenURI(uint256)": {
        "details": "See {IERC721Metadata-tokenURI}."
      },
      "transferFrom(address,address,uint256)": {
        "details": "See {IERC721-transferFrom}."
      },
      "transferOwnership(address)": {
        "details": "Transfers ownership of the contract to a new account (`newOwner`). Can only be called by the current owner."
      }
    },
    "version": 1
  },
  "userdoc": {
    "kind": "user",
    "methods": {},
    "version": 1
  }
}