{
  "contractName": "StartUpDapp",
  "abi": [
    {
      "inputs": [],
      "stateMutability": "nonpayable",
      "type": "constructor"
    },
    {
      "anonymous": false,
      "inputs": [
        {
          "indexed": true,
          "internalType": "address",
          "name": "owner",
          "type": "address"
        },
        {
          "indexed": true,
          "internalType": "address",
          "name": "approved",
          "type": "address"
        },
        {
          "indexed": true,
          "internalType": "uint256",
          "name": "tokenId",
          "type": "uint256"
        }
      ],
      "name": "Approval",
      "type": "event"
    },
    {
      "anonymous": false,
      "inputs": [
        {
          "indexed": true,
          "internalType": "address",
          "name": "owner",
          "type": "address"
        },
        {
          "indexed": true,
          "internalType": "address",
          "name": "operator",
          "type": "address"
        },
        {
          "indexed": false,
          "internalType": "bool",
          "name": "approved",
          "type": "bool"
        }
      ],
      "name": "ApprovalForAll",
      "type": "event"
    },
    {
      "anonymous": false,
      "inputs": [
        {
          "indexed": true,
          "internalType": "address",
          "name": "previousOwner",
          "type": "address"
        },
        {
          "indexed": true,
          "internalType": "address",
          "name": "newOwner",
          "type": "address"
        }
      ],
      "name": "OwnershipTransferred",
      "type": "event"
    },
    {
      "anonymous": false,
      "inputs": [
        {
          "indexed": true,
          "internalType": "address",
          "name": "from",
          "type": "address"
        },
        {
          "indexed": true,
          "internalType": "address",
          "name": "to",
          "type": "address"
        },
        {
          "indexed": true,
          "internalType": "uint256",
          "name": "tokenId",
          "type": "uint256"
        }
      ],
      "name": "Transfer",
      "type": "event"
    },
    {
      "inputs": [
        {
          "internalType": "address",
          "name": "to",
          "type": "address"
        },
        {
          "internalType": "uint256",
          "name": "tokenId",
          "type": "uint256"
        }
      ],
      "name": "approve",
      "outputs": [],
      "stateMutability": "nonpayable",
      "type": "function"
    },
    {
      "inputs": [
        {
          "internalType": "address",
          "name": "owner",
          "type": "address"
        }
      ],
      "name": "balanceOf",
      "outputs": [
        {
          "internalType": "uint256",
          "name": "",
          "type": "uint256"
        }
      ],
      "stateMutability": "view",
      "type": "function",
      "constant": true
    },
    {
      "inputs": [
        {
          "internalType": "uint256",
          "name": "tokenId",
          "type": "uint256"
        }
      ],
      "name": "getApproved",
      "outputs": [
        {
          "internalType": "address",
          "name": "",
          "type": "address"
        }
      ],
      "stateMutability": "view",
      "type": "function",
      "constant": true
    },
    {
      "inputs": [
        {
          "internalType": "address",
          "name": "owner",
          "type": "address"
        },
        {
          "internalType": "address",
          "name": "operator",
          "type": "address"
        }
      ],
      "name": "isApprovedForAll",
      "outputs": [
        {
          "internalType": "bool",
          "name": "",
          "type": "bool"
        }
      ],
      "stateMutability": "view",
      "type": "function",
      "constant": true
    },
    {
      "inputs": [],
      "name": "mintCount",
      "outputs": [
        {
          "internalType": "uint256",
          "name": "",
          "type": "uint256"
        }
      ],
      "stateMutability": "view",
      "type": "function",
      "constant": true
    },
    {
      "inputs": [
        {
          "internalType": "uint256",
          "name": "",
          "type": "uint256"
        }
      ],
      "name": "minting",
      "outputs": [
        {
          "internalType": "address",
          "name": "recipient",
          "type": "address"
        },
        {
          "internalType": "string",
          "name": "tokenURI",
          "type": "string"
        },
        {
          "internalType": "bool",
          "name": "isActive",
          "type": "bool"
        }
      ],
      "stateMutability": "view",
      "type": "function",
      "constant": true
    },
    {
      "inputs": [],
      "name": "name",
      "outputs": [
        {
          "internalType": "string",
          "name": "",
          "type": "string"
        }
      ],
      "stateMutability": "view",
      "type": "function",
      "constant": true
    },
    {
      "inputs": [],
      "name": "owner",
      "outputs": [
        {
          "internalType": "address",
          "name": "",
          "type": "address"
        }
      ],
      "stateMutability": "view",
      "type": "function",
      "constant": true
    },
    {
      "inputs": [
        {
          "internalType": "uint256",
          "name": "tokenId",
          "type": "uint256"
        }
      ],
      "name": "ownerOf",
      "outputs": [
        {
          "internalType": "address",
          "name": "",
          "type": "address"
        }
      ],
      "stateMutability": "view",
      "type": "function",
      "constant": true
    },
    {
      "inputs": [],
      "name": "recipient",
      "outputs": [
        {
          "internalType": "address",
          "name": "",
          "type": "address"
        }
      ],
      "stateMutability": "view",
      "type": "function",
      "constant": true
    },
    {
      "inputs": [],
      "name": "renounceOwnership",
      "outputs": [],
      "stateMutability": "nonpayable",
      "type": "function"
    },
    {
      "inputs": [
        {
          "internalType": "address",
          "name": "from",
          "type": "address"
        },
        {
          "internalType": "address",
          "name": "to",
          "type": "address"
        },
        {
          "internalType": "uint256",
          "name": "tokenId",
          "type": "uint256"
        }
      ],
      "name": "safeTransferFrom",
      "outputs": [],
      "stateMutability": "nonpayable",
      "type": "function"
    },
    {
      "inputs": [
        {
          "internalType": "address",
          "name": "from",
          "type": "address"
        },
        {
          "internalType": "address",
          "name": "to",
          "type": "address"
        },
        {
          "internalType": "uint256",
          "name": "tokenId",
          "type": "uint256"
        },
        {
          "internalType": "bytes",
          "name": "_data",
          "type": "bytes"
        }
      ],
      "name": "safeTransferFrom",
      "outputs": [],
      "stateMutability": "nonpayable",
      "type": "function"
    },
    {
      "inputs": [
        {
          "internalType": "address",
          "name": "operator",
          "type": "address"
        },
        {
          "internalType": "bool",
          "name": "approved",
          "type": "bool"
        }
      ],
      "name": "setApprovalForAll",
      "outputs": [],
      "stateMutability": "nonpayable",
      "type": "function"
    },
    {
      "inputs": [
        {
          "internalType": "bytes4",
          "name": "interfaceId",
          "type": "bytes4"
        }
      ],
      "name": "supportsInterface",
      "outputs": [
        {
          "internalType": "bool",
          "name": "",
          "type": "bool"
        }
      ],
      "stateMutability": "view",
      "type": "function",
      "constant": true
    },
    {
      "inputs": [],
      "name": "symbol",
      "outputs": [
        {
          "internalType": "string",
          "name": "",
          "type": "string"
        }
      ],
      "stateMutability": "view",
      "type": "function",
      "constant": true
    },
    {
      "inputs": [],
      "name": "tokenURI",
      "outputs": [
        {
          "internalType": "string",
          "name": "",
          "type": "string"
        }
      ],
      "stateMutability": "view",
      "type": "function",
      "constant": true
    },
    {
      "inputs": [
        {
          "internalType": "uint256",
          "name": "tokenId",
          "type": "uint256"
        }
      ],
      "name": "tokenURI",
      "outputs": [
        {
          "internalType": "string",
          "name": "",
          "type": "string"
        }
      ],
      "stateMutability": "view",
      "type": "function",
      "constant": true
    },
    {
      "inputs": [
        {
          "internalType": "address",
          "name": "from",
          "type": "address"
        },
        {
          "internalType": "address",
          "name": "to",
          "type": "address"
        },
        {
          "internalType": "uint256",
          "name": "tokenId",
          "type": "uint256"
        }
      ],
      "name": "transferFrom",
      "outputs": [],
      "stateMutability": "nonpayable",
      "type": "function"
    },
    {
      "inputs": [
        {
          "internalType": "address",
          "name": "newOwner",
          "type": "address"
        }
      ],
      "name": "transferOwnership",
      "outputs": [],
      "stateMutability": "nonpayable",
      "type": "function"
    },
    {
      "inputs": [],
      "name": "mintNFT",
      "outputs": [
        {
          "internalType": "uint256",
          "name": "",
          "type": "uint256"
        }
      ],
      "stateMutability": "nonpayable",
      "type": "function"
    }
  ],
  "bytecode": "0x6080604052600060095533600a60006101000a81548173ffffffffffffffffffffffffffffffffffffffff021916908373ffffffffffffffffffffffffffffffffffffffff1602179055506040518060600160405280602e8152602001620036ef602e9139600b90805190602001906200007b9291906200021e565b503480156200008957600080fd5b506040518060400160405280600581526020017f4d794e46540000000000000000000000000000000000000000000000000000008152506040518060400160405280600981526020017f4e4654574f524b4544000000000000000000000000000000000000000000000081525081600090805190602001906200010e9291906200021e565b508060019080519060200190620001279291906200021e565b5050506200014a6200013e6200015060201b60201c565b6200015860201b60201c565b62000333565b600033905090565b6000600760009054906101000a900473ffffffffffffffffffffffffffffffffffffffff16905081600760006101000a81548173ffffffffffffffffffffffffffffffffffffffff021916908373ffffffffffffffffffffffffffffffffffffffff1602179055508173ffffffffffffffffffffffffffffffffffffffff168173ffffffffffffffffffffffffffffffffffffffff167f8be0079c531659141344cd1fd0a4f28419497f9722a3daafe3b4186f6b6457e060405160405180910390a35050565b8280546200022c90620002fd565b90600052602060002090601f0160209004810192826200025057600085556200029c565b82601f106200026b57805160ff19168380011785556200029c565b828001600101855582156200029c579182015b828111156200029b5782518255916020019190600101906200027e565b5b509050620002ab9190620002af565b5090565b5b80821115620002ca576000816000905550600101620002b0565b5090565b7f4e487b7100000000000000000000000000000000000000000000000000000000600052602260045260246000fd5b600060028204905060018216806200031657607f821691505b602082108114156200032d576200032c620002ce565b5b50919050565b6133ac80620003436000396000f3fe608060405234801561001057600080fd5b50600436106101375760003560e01c806370a08231116100b8578063a22cb4651161007c578063a22cb4651461032c578063b88d4fde14610348578063c87b56dd14610364578063e985e9c514610394578063f2cee92b146103c4578063f2fde38b146103f657610137565b806370a0823114610298578063715018a6146102c85780638da5cb5b146102d257806395d89b41146102f05780639659867e1461030e57610137565b806323b872dd116100ff57806323b872dd146101f45780633c130d901461021057806342842e0e1461022e5780636352211e1461024a57806366d003ac1461027a57610137565b806301ffc9a71461013c57806306fdde031461016c578063081812fc1461018a578063095ea7b3146101ba57806314f710fe146101d6575b600080fd5b610156600480360381019061015191906120cf565b610412565b6040516101639190612117565b60405180910390f35b6101746104f4565b60405161018191906121cb565b60405180910390f35b6101a4600480360381019061019f9190612223565b610586565b6040516101b19190612291565b60405180910390f35b6101d460048036038101906101cf91906122d8565b61060b565b005b6101de610723565b6040516101eb9190612327565b60405180910390f35b61020e60048036038101906102099190612342565b6109f2565b005b610218610a52565b60405161022591906121cb565b60405180910390f35b61024860048036038101906102439190612342565b610ae0565b005b610264600480360381019061025f9190612223565b610b00565b6040516102719190612291565b60405180910390f35b610282610bb2565b60405161028f9190612291565b60405180910390f35b6102b260048036038101906102ad9190612395565b610bd8565b6040516102bf9190612327565b60405180910390f35b6102d0610c90565b005b6102da610d18565b6040516102e79190612291565b60405180910390f35b6102f8610d42565b60405161030591906121cb565b60405180910390f35b610316610dd4565b6040516103239190612327565b60405180910390f35b610346600480360381019061034191906123ee565b610dda565b005b610362600480360381019061035d9190612563565b610df0565b005b61037e60048036038101906103799190612223565b610e52565b60405161038b91906121cb565b60405180910390f35b6103ae60048036038101906103a991906125e6565b610fa4565b6040516103bb9190612117565b60405180910390f35b6103de60048036038101906103d99190612223565b611038565b6040516103ed93929190612626565b60405180910390f35b610410600480360381019061040b9190612395565b611117565b005b60007f80ac58cd000000000000000000000000000000000000000000000000000000007bffffffffffffffffffffffffffffffffffffffffffffffffffffffff1916827bffffffffffffffffffffffffffffffffffffffffffffffffffffffff191614806104dd57507f5b5e139f000000000000000000000000000000000000000000000000000000007bffffffffffffffffffffffffffffffffffffffffffffffffffffffff1916827bffffffffffffffffffffffffffffffffffffffffffffffffffffffff1916145b806104ed57506104ec8261120f565b5b9050919050565b60606000805461050390612693565b80601f016020809104026020016040519081016040528092919081815260200182805461052f90612693565b801561057c5780601f106105515761010080835404028352916020019161057c565b820191906000526020600020905b81548152906001019060200180831161055f57829003601f168201915b5050505050905090565b600061059182611279565b6105d0576040517f08c379a00000000000000000000000000000000000000000000000000000000081526004016105c790612737565b60405180910390fd5b6004600083815260200190815260200160002060009054906101000a900473ffffffffffffffffffffffffffffffffffffffff169050919050565b600061061682610b00565b90508073ffffffffffffffffffffffffffffffffffffffff168373ffffffffffffffffffffffffffffffffffffffff161415610687576040517f08c379a000000000000000000000000000000000000000000000000000000000815260040161067e906127c9565b60405180910390fd5b8073ffffffffffffffffffffffffffffffffffffffff166106a66112e5565b73ffffffffffffffffffffffffffffffffffffffff1614806106d557506106d4816106cf6112e5565b610fa4565b5b610714576040517f08c379a000000000000000000000000000000000000000000000000000000000815260040161070b9061285b565b60405180910390fd5b61071e83836112ed565b505050565b600061072d6112e5565b73ffffffffffffffffffffffffffffffffffffffff1661074b610d18565b73ffffffffffffffffffffffffffffffffffffffff16146107a1576040517f08c379a0000000000000000000000000000000000000000000000000000000008152600401610798906128c7565b60405180910390fd5b6107ab60086113a6565b600960008154809291906107be90612916565b919050555060006107cf60086113bc565b90506107fd600a60009054906101000a900473ffffffffffffffffffffffffffffffffffffffff16826113ca565b61089181600b805461080e90612693565b80601f016020809104026020016040519081016040528092919081815260200182805461083a90612693565b80156108875780601f1061085c57610100808354040283529160200191610887565b820191906000526020600020905b81548152906001019060200180831161086a57829003601f168201915b50505050506115a4565b60405180606001604052803373ffffffffffffffffffffffffffffffffffffffff168152602001600b80546108c590612693565b80601f01602080910402602001604051908101604052809291908181526020018280546108f190612693565b801561093e5780601f106109135761010080835404028352916020019161093e565b820191906000526020600020905b81548152906001019060200180831161092157829003601f168201915b5050505050815260200160011515815250600c6000600954815260200190815260200160002060008201518160000160006101000a81548173ffffffffffffffffffffffffffffffffffffffff021916908373ffffffffffffffffffffffffffffffffffffffff16021790555060208201518160010190805190602001906109c7929190611fc0565b5060408201518160020160006101000a81548160ff0219169083151502179055509050508091505090565b610a036109fd6112e5565b82611618565b610a42576040517f08c379a0000000000000000000000000000000000000000000000000000000008152600401610a39906129d1565b60405180910390fd5b610a4d8383836116f6565b505050565b600b8054610a5f90612693565b80601f0160208091040260200160405190810160405280929190818152602001828054610a8b90612693565b8015610ad85780601f10610aad57610100808354040283529160200191610ad8565b820191906000526020600020905b815481529060010190602001808311610abb57829003601f168201915b505050505081565b610afb83838360405180602001604052806000815250610df0565b505050565b6000806002600084815260200190815260200160002060009054906101000a900473ffffffffffffffffffffffffffffffffffffffff169050600073ffffffffffffffffffffffffffffffffffffffff168173ffffffffffffffffffffffffffffffffffffffff161415610ba9576040517f08c379a0000000000000000000000000000000000000000000000000000000008152600401610ba090612a63565b60405180910390fd5b80915050919050565b600a60009054906101000a900473ffffffffffffffffffffffffffffffffffffffff1681565b60008073ffffffffffffffffffffffffffffffffffffffff168273ffffffffffffffffffffffffffffffffffffffff161415610c49576040517f08c379a0000000000000000000000000000000000000000000000000000000008152600401610c4090612af5565b60405180910390fd5b600360008373ffffffffffffffffffffffffffffffffffffffff1673ffffffffffffffffffffffffffffffffffffffff168152602001908152602001600020549050919050565b610c986112e5565b73ffffffffffffffffffffffffffffffffffffffff16610cb6610d18565b73ffffffffffffffffffffffffffffffffffffffff1614610d0c576040517f08c379a0000000000000000000000000000000000000000000000000000000008152600401610d03906128c7565b60405180910390fd5b610d16600061195d565b565b6000600760009054906101000a900473ffffffffffffffffffffffffffffffffffffffff16905090565b606060018054610d5190612693565b80601f0160208091040260200160405190810160405280929190818152602001828054610d7d90612693565b8015610dca5780601f10610d9f57610100808354040283529160200191610dca565b820191906000526020600020905b815481529060010190602001808311610dad57829003601f168201915b5050505050905090565b60095481565b610dec610de56112e5565b8383611a23565b5050565b610e01610dfb6112e5565b83611618565b610e40576040517f08c379a0000000000000000000000000000000000000000000000000000000008152600401610e37906129d1565b60405180910390fd5b610e4c84848484611b90565b50505050565b6060610e5d82611279565b610e9c576040517f08c379a0000000000000000000000000000000000000000000000000000000008152600401610e9390612b87565b60405180910390fd5b6000600660008481526020019081526020016000208054610ebc90612693565b80601f0160208091040260200160405190810160405280929190818152602001828054610ee890612693565b8015610f355780601f10610f0a57610100808354040283529160200191610f35565b820191906000526020600020905b815481529060010190602001808311610f1857829003601f168201915b505050505090506000610f46611bec565b9050600081511415610f5c578192505050610f9f565b600082511115610f91578082604051602001610f79929190612be3565b60405160208183030381529060405292505050610f9f565b610f9a84611c03565b925050505b919050565b6000600560008473ffffffffffffffffffffffffffffffffffffffff1673ffffffffffffffffffffffffffffffffffffffff16815260200190815260200160002060008373ffffffffffffffffffffffffffffffffffffffff1673ffffffffffffffffffffffffffffffffffffffff16815260200190815260200160002060009054906101000a900460ff16905092915050565b600c6020528060005260406000206000915090508060000160009054906101000a900473ffffffffffffffffffffffffffffffffffffffff169080600101805461108190612693565b80601f01602080910402602001604051908101604052809291908181526020018280546110ad90612693565b80156110fa5780601f106110cf576101008083540402835291602001916110fa565b820191906000526020600020905b8154815290600101906020018083116110dd57829003601f168201915b5050505050908060020160009054906101000a900460ff16905083565b61111f6112e5565b73ffffffffffffffffffffffffffffffffffffffff1661113d610d18565b73ffffffffffffffffffffffffffffffffffffffff1614611193576040517f08c379a000000000000000000000000000000000000000000000000000000000815260040161118a906128c7565b60405180910390fd5b600073ffffffffffffffffffffffffffffffffffffffff168173ffffffffffffffffffffffffffffffffffffffff161415611203576040517f08c379a00000000000000000000000000000000000000000000000000000000081526004016111fa90612c79565b60405180910390fd5b61120c8161195d565b50565b60007f01ffc9a7000000000000000000000000000000000000000000000000000000007bffffffffffffffffffffffffffffffffffffffffffffffffffffffff1916827bffffffffffffffffffffffffffffffffffffffffffffffffffffffff1916149050919050565b60008073ffffffffffffffffffffffffffffffffffffffff166002600084815260200190815260200160002060009054906101000a900473ffffffffffffffffffffffffffffffffffffffff1673ffffffffffffffffffffffffffffffffffffffff1614159050919050565b600033905090565b816004600083815260200190815260200160002060006101000a81548173ffffffffffffffffffffffffffffffffffffffff021916908373ffffffffffffffffffffffffffffffffffffffff160217905550808273ffffffffffffffffffffffffffffffffffffffff1661136083610b00565b73ffffffffffffffffffffffffffffffffffffffff167f8c5be1e5ebec7d5bd14f71427d1e84f3dd0314c0f7b2291e5b200ac8c7c3b92560405160405180910390a45050565b6001816000016000828254019250508190555050565b600081600001549050919050565b600073ffffffffffffffffffffffffffffffffffffffff168273ffffffffffffffffffffffffffffffffffffffff16141561143a576040517f08c379a000000000000000000000000000000000000000000000000000000000815260040161143190612ce5565b60405180910390fd5b61144381611279565b15611483576040517f08c379a000000000000000000000000000000000000000000000000000000000815260040161147a90612d51565b60405180910390fd5b61148f60008383611caa565b6001600360008473ffffffffffffffffffffffffffffffffffffffff1673ffffffffffffffffffffffffffffffffffffffff16815260200190815260200160002060008282546114df9190612d71565b92505081905550816002600083815260200190815260200160002060006101000a81548173ffffffffffffffffffffffffffffffffffffffff021916908373ffffffffffffffffffffffffffffffffffffffff160217905550808273ffffffffffffffffffffffffffffffffffffffff16600073ffffffffffffffffffffffffffffffffffffffff167fddf252ad1be2c89b69c2b068fc378daa952ba7f163c4a11628f55a4df523b3ef60405160405180910390a46115a060008383611caf565b5050565b6115ad82611279565b6115ec576040517f08c379a00000000000000000000000000000000000000000000000000000000081526004016115e390612e39565b60405180910390fd5b80600660008481526020019081526020016000209080519060200190611613929190611fc0565b505050565b600061162382611279565b611662576040517f08c379a000000000000000000000000000000000000000000000000000000000815260040161165990612ecb565b60405180910390fd5b600061166d83610b00565b90508073ffffffffffffffffffffffffffffffffffffffff168473ffffffffffffffffffffffffffffffffffffffff1614806116dc57508373ffffffffffffffffffffffffffffffffffffffff166116c484610586565b73ffffffffffffffffffffffffffffffffffffffff16145b806116ed57506116ec8185610fa4565b5b91505092915050565b8273ffffffffffffffffffffffffffffffffffffffff1661171682610b00565b73ffffffffffffffffffffffffffffffffffffffff161461176c576040517f08c379a000000000000000000000000000000000000000000000000000000000815260040161176390612f5d565b60405180910390fd5b600073ffffffffffffffffffffffffffffffffffffffff168273ffffffffffffffffffffffffffffffffffffffff1614156117dc576040517f08c379a00000000000000000000000000000000000000000000000000000000081526004016117d390612fef565b60405180910390fd5b6117e7838383611caa565b6117f26000826112ed565b6001600360008573ffffffffffffffffffffffffffffffffffffffff1673ffffffffffffffffffffffffffffffffffffffff1681526020019081526020016000206000828254611842919061300f565b925050819055506001600360008473ffffffffffffffffffffffffffffffffffffffff1673ffffffffffffffffffffffffffffffffffffffff16815260200190815260200160002060008282546118999190612d71565b92505081905550816002600083815260200190815260200160002060006101000a81548173ffffffffffffffffffffffffffffffffffffffff021916908373ffffffffffffffffffffffffffffffffffffffff160217905550808273ffffffffffffffffffffffffffffffffffffffff168473ffffffffffffffffffffffffffffffffffffffff167fddf252ad1be2c89b69c2b068fc378daa952ba7f163c4a11628f55a4df523b3ef60405160405180910390a4611958838383611caf565b505050565b6000600760009054906101000a900473ffffffffffffffffffffffffffffffffffffffff16905081600760006101000a81548173ffffffffffffffffffffffffffffffffffffffff021916908373ffffffffffffffffffffffffffffffffffffffff1602179055508173ffffffffffffffffffffffffffffffffffffffff168173ffffffffffffffffffffffffffffffffffffffff167f8be0079c531659141344cd1fd0a4f28419497f9722a3daafe3b4186f6b6457e060405160405180910390a35050565b8173ffffffffffffffffffffffffffffffffffffffff168373ffffffffffffffffffffffffffffffffffffffff161415611a92576040517f08c379a0000000000000000000000000000000000000000000000000000000008152600401611a899061308f565b60405180910390fd5b80600560008573ffffffffffffffffffffffffffffffffffffffff1673ffffffffffffffffffffffffffffffffffffffff16815260200190815260200160002060008473ffffffffffffffffffffffffffffffffffffffff1673ffffffffffffffffffffffffffffffffffffffff16815260200190815260200160002060006101000a81548160ff0219169083151502179055508173ffffffffffffffffffffffffffffffffffffffff168373ffffffffffffffffffffffffffffffffffffffff167f17307eab39ab6107e8899845ad3d59bd9653f200f220920489ca2b5937696c3183604051611b839190612117565b60405180910390a3505050565b611b9b8484846116f6565b611ba784848484611cb4565b611be6576040517f08c379a0000000000000000000000000000000000000000000000000000000008152600401611bdd90613121565b60405180910390fd5b50505050565b606060405180602001604052806000815250905090565b6060611c0e82611279565b611c4d576040517f08c379a0000000000000000000000000000000000000000000000000000000008152600401611c44906131b3565b60405180910390fd5b6000611c57611bec565b90506000815111611c775760405180602001604052806000815250611ca2565b80611c8184611e3c565b604051602001611c92929190612be3565b6040516020818303038152906040525b915050919050565b505050565b505050565b6000611cd58473ffffffffffffffffffffffffffffffffffffffff16611f9d565b15611e2f578373ffffffffffffffffffffffffffffffffffffffff1663150b7a02611cfe6112e5565b8786866040518563ffffffff1660e01b8152600401611d209493929190613228565b6020604051808303816000875af1925050508015611d5c57506040513d601f19601f82011682018060405250810190611d599190613289565b60015b611ddf573d8060008114611d8c576040519150601f19603f3d011682016040523d82523d6000602084013e611d91565b606091505b50600081511415611dd7576040517f08c379a0000000000000000000000000000000000000000000000000000000008152600401611dce90613121565b60405180910390fd5b805181602001fd5b63150b7a0260e01b7bffffffffffffffffffffffffffffffffffffffffffffffffffffffff1916817bffffffffffffffffffffffffffffffffffffffffffffffffffffffff191614915050611e34565b600190505b949350505050565b60606000821415611e84576040518060400160405280600181526020017f30000000000000000000000000000000000000000000000000000000000000008152509050611f98565b600082905060005b60008214611eb6578080611e9f90612916565b915050600a82611eaf91906132e5565b9150611e8c565b60008167ffffffffffffffff811115611ed257611ed1612438565b5b6040519080825280601f01601f191660200182016040528015611f045781602001600182028036833780820191505090505b5090505b60008514611f9157600182611f1d919061300f565b9150600a85611f2c9190613316565b6030611f389190612d71565b60f81b818381518110611f4e57611f4d613347565b5b60200101907effffffffffffffffffffffffffffffffffffffffffffffffffffffffffffff1916908160001a905350600a85611f8a91906132e5565b9450611f08565b8093505050505b919050565b6000808273ffffffffffffffffffffffffffffffffffffffff163b119050919050565b828054611fcc90612693565b90600052602060002090601f016020900481019282611fee5760008555612035565b82601f1061200757805160ff1916838001178555612035565b82800160010185558215612035579182015b82811115612034578251825591602001919060010190612019565b5b5090506120429190612046565b5090565b5b8082111561205f576000816000905550600101612047565b5090565b6000604051905090565b600080fd5b600080fd5b60007fffffffff0000000000000000000000000000000000000000000000000000000082169050919050565b6120ac81612077565b81146120b757600080fd5b50565b6000813590506120c9816120a3565b92915050565b6000602082840312156120e5576120e461206d565b5b60006120f3848285016120ba565b91505092915050565b60008115159050919050565b612111816120fc565b82525050565b600060208201905061212c6000830184612108565b92915050565b600081519050919050565b600082825260208201905092915050565b60005b8381101561216c578082015181840152602081019050612151565b8381111561217b576000848401525b50505050565b6000601f19601f8301169050919050565b600061219d82612132565b6121a7818561213d565b93506121b781856020860161214e565b6121c081612181565b840191505092915050565b600060208201905081810360008301526121e58184612192565b905092915050565b6000819050919050565b612200816121ed565b811461220b57600080fd5b50565b60008135905061221d816121f7565b92915050565b6000602082840312156122395761223861206d565b5b60006122478482850161220e565b91505092915050565b600073ffffffffffffffffffffffffffffffffffffffff82169050919050565b600061227b82612250565b9050919050565b61228b81612270565b82525050565b60006020820190506122a66000830184612282565b92915050565b6122b581612270565b81146122c057600080fd5b50565b6000813590506122d2816122ac565b92915050565b600080604083850312156122ef576122ee61206d565b5b60006122fd858286016122c3565b925050602061230e8582860161220e565b9150509250929050565b612321816121ed565b82525050565b600060208201905061233c6000830184612318565b92915050565b60008060006060848603121561235b5761235a61206d565b5b6000612369868287016122c3565b935050602061237a868287016122c3565b925050604061238b8682870161220e565b9150509250925092565b6000602082840312156123ab576123aa61206d565b5b60006123b9848285016122c3565b91505092915050565b6123cb816120fc565b81146123d657600080fd5b50565b6000813590506123e8816123c2565b92915050565b600080604083850312156124055761240461206d565b5b6000612413858286016122c3565b9250506020612424858286016123d9565b9150509250929050565b600080fd5b600080fd5b7f4e487b7100000000000000000000000000000000000000000000000000000000600052604160045260246000fd5b61247082612181565b810181811067ffffffffffffffff8211171561248f5761248e612438565b5b80604052505050565b60006124a2612063565b90506124ae8282612467565b919050565b600067ffffffffffffffff8211156124ce576124cd612438565b5b6124d782612181565b9050602081019050919050565b82818337600083830152505050565b6000612506612501846124b3565b612498565b90508281526020810184848401111561252257612521612433565b5b61252d8482856124e4565b509392505050565b600082601f83011261254a5761254961242e565b5b813561255a8482602086016124f3565b91505092915050565b6000806000806080858703121561257d5761257c61206d565b5b600061258b878288016122c3565b945050602061259c878288016122c3565b93505060406125ad8782880161220e565b925050606085013567ffffffffffffffff8111156125ce576125cd612072565b5b6125da87828801612535565b91505092959194509250565b600080604083850312156125fd576125fc61206d565b5b600061260b858286016122c3565b925050602061261c858286016122c3565b9150509250929050565b600060608201905061263b6000830186612282565b818103602083015261264d8185612192565b905061265c6040830184612108565b949350505050565b7f4e487b7100000000000000000000000000000000000000000000000000000000600052602260045260246000fd5b600060028204905060018216806126ab57607f821691505b602082108114156126bf576126be612664565b5b50919050565b7f4552433732313a20617070726f76656420717565727920666f72206e6f6e657860008201527f697374656e7420746f6b656e0000000000000000000000000000000000000000602082015250565b6000612721602c8361213d565b915061272c826126c5565b604082019050919050565b6000602082019050818103600083015261275081612714565b9050919050565b7f4552433732313a20617070726f76616c20746f2063757272656e74206f776e6560008201527f7200000000000000000000000000000000000000000000000000000000000000602082015250565b60006127b360218361213d565b91506127be82612757565b604082019050919050565b600060208201905081810360008301526127e2816127a6565b9050919050565b7f4552433732313a20617070726f76652063616c6c6572206973206e6f74206f7760008201527f6e6572206e6f7220617070726f76656420666f7220616c6c0000000000000000602082015250565b600061284560388361213d565b9150612850826127e9565b604082019050919050565b6000602082019050818103600083015261287481612838565b9050919050565b7f4f776e61626c653a2063616c6c6572206973206e6f7420746865206f776e6572600082015250565b60006128b160208361213d565b91506128bc8261287b565b602082019050919050565b600060208201905081810360008301526128e0816128a4565b9050919050565b7f4e487b7100000000000000000000000000000000000000000000000000000000600052601160045260246000fd5b6000612921826121ed565b91507fffffffffffffffffffffffffffffffffffffffffffffffffffffffffffffffff821415612954576129536128e7565b5b600182019050919050565b7f4552433732313a207472616e736665722063616c6c6572206973206e6f74206f60008201527f776e6572206e6f7220617070726f766564000000000000000000000000000000602082015250565b60006129bb60318361213d565b91506129c68261295f565b604082019050919050565b600060208201905081810360008301526129ea816129ae565b9050919050565b7f4552433732313a206f776e657220717565727920666f72206e6f6e657869737460008201527f656e7420746f6b656e0000000000000000000000000000000000000000000000602082015250565b6000612a4d60298361213d565b9150612a58826129f1565b604082019050919050565b60006020820190508181036000830152612a7c81612a40565b9050919050565b7f4552433732313a2062616c616e636520717565727920666f7220746865207a6560008201527f726f206164647265737300000000000000000000000000000000000000000000602082015250565b6000612adf602a8361213d565b9150612aea82612a83565b604082019050919050565b60006020820190508181036000830152612b0e81612ad2565b9050919050565b7f45524337323155524953746f726167653a2055524920717565727920666f722060008201527f6e6f6e6578697374656e7420746f6b656e000000000000000000000000000000602082015250565b6000612b7160318361213d565b9150612b7c82612b15565b604082019050919050565b60006020820190508181036000830152612ba081612b64565b9050919050565b600081905092915050565b6000612bbd82612132565b612bc78185612ba7565b9350612bd781856020860161214e565b80840191505092915050565b6000612bef8285612bb2565b9150612bfb8284612bb2565b91508190509392505050565b7f4f776e61626c653a206e6577206f776e657220697320746865207a65726f206160008201527f6464726573730000000000000000000000000000000000000000000000000000602082015250565b6000612c6360268361213d565b9150612c6e82612c07565b604082019050919050565b60006020820190508181036000830152612c9281612c56565b9050919050565b7f4552433732313a206d696e7420746f20746865207a65726f2061646472657373600082015250565b6000612ccf60208361213d565b9150612cda82612c99565b602082019050919050565b60006020820190508181036000830152612cfe81612cc2565b9050919050565b7f4552433732313a20746f6b656e20616c7265616479206d696e74656400000000600082015250565b6000612d3b601c8361213d565b9150612d4682612d05565b602082019050919050565b60006020820190508181036000830152612d6a81612d2e565b9050919050565b6000612d7c826121ed565b9150612d87836121ed565b9250827fffffffffffffffffffffffffffffffffffffffffffffffffffffffffffffffff03821115612dbc57612dbb6128e7565b5b828201905092915050565b7f45524337323155524953746f726167653a2055524920736574206f66206e6f6e60008201527f6578697374656e7420746f6b656e000000000000000000000000000000000000602082015250565b6000612e23602e8361213d565b9150612e2e82612dc7565b604082019050919050565b60006020820190508181036000830152612e5281612e16565b9050919050565b7f4552433732313a206f70657261746f7220717565727920666f72206e6f6e657860008201527f697374656e7420746f6b656e0000000000000000000000000000000000000000602082015250565b6000612eb5602c8361213d565b9150612ec082612e59565b604082019050919050565b60006020820190508181036000830152612ee481612ea8565b9050919050565b7f4552433732313a207472616e736665722066726f6d20696e636f72726563742060008201527f6f776e6572000000000000000000000000000000000000000000000000000000602082015250565b6000612f4760258361213d565b9150612f5282612eeb565b604082019050919050565b60006020820190508181036000830152612f7681612f3a565b9050919050565b7f4552433732313a207472616e7366657220746f20746865207a65726f2061646460008201527f7265737300000000000000000000000000000000000000000000000000000000602082015250565b6000612fd960248361213d565b9150612fe482612f7d565b604082019050919050565b6000602082019050818103600083015261300881612fcc565b9050919050565b600061301a826121ed565b9150613025836121ed565b925082821015613038576130376128e7565b5b828203905092915050565b7f4552433732313a20617070726f766520746f2063616c6c657200000000000000600082015250565b600061307960198361213d565b915061308482613043565b602082019050919050565b600060208201905081810360008301526130a88161306c565b9050919050565b7f4552433732313a207472616e7366657220746f206e6f6e20455243373231526560008201527f63656976657220696d706c656d656e7465720000000000000000000000000000602082015250565b600061310b60328361213d565b9150613116826130af565b604082019050919050565b6000602082019050818103600083015261313a816130fe565b9050919050565b7f4552433732314d657461646174613a2055524920717565727920666f72206e6f60008201527f6e6578697374656e7420746f6b656e0000000000000000000000000000000000602082015250565b600061319d602f8361213d565b91506131a882613141565b604082019050919050565b600060208201905081810360008301526131cc81613190565b9050919050565b600081519050919050565b600082825260208201905092915050565b60006131fa826131d3565b61320481856131de565b935061321481856020860161214e565b61321d81612181565b840191505092915050565b600060808201905061323d6000830187612282565b61324a6020830186612282565b6132576040830185612318565b818103606083015261326981846131ef565b905095945050505050565b600081519050613283816120a3565b92915050565b60006020828403121561329f5761329e61206d565b5b60006132ad84828501613274565b91505092915050565b7f4e487b7100000000000000000000000000000000000000000000000000000000600052601260045260246000fd5b60006132f0826121ed565b91506132fb836121ed565b92508261330b5761330a6132b6565b5b828204905092915050565b6000613321826121ed565b915061332c836121ed565b92508261333c5761333b6132b6565b5b828206905092915050565b7f4e487b7100000000000000000000000000000000000000000000000000000000600052603260045260246000fdfea2646970667358221220759204187be608374818b13251961e93ceaf7dd2f8a76123b7506e2fa40167ea64736f6c634300080a0033516d5a4b655642476f6a50726e757037715479504a413161457a6578686e534642507261616d6b4d684d394e6445",
  "immutableReferences": {},
  "source": "// SPDX-License-Identifier: MIT\npragma solidity ^ 0.8.10;\nimport \"@openzeppelin/contracts/token/ERC721/ERC721.sol\";\nimport \"@openzeppelin/contracts/utils/Counters.sol\";\nimport \"@openzeppelin/contracts/access/Ownable.sol\";\nimport \"@openzeppelin/contracts/token/ERC721/extensions/ERC721URIStorage.sol\";\n\ncontract StartUpDapp is ERC721URIStorage, Ownable {\n  using Counters for Counters.Counter;\n  Counters.Counter private _tokenIds;\n  \n    //address public owner = msg.sender;\n    uint256 public mintCount = 0;\n    address public recipient = msg.sender;\n    string public tokenURI = \"QmZKeVBGojPrnup7qTyPJA1aEzexhnSFBPraamkMhM9NdE\";\n    mapping(uint256 => Mint) public minting;\n\n  constructor() ERC721(\"MyNFT\", \"NFTWORKED\") {}\n\n\n  struct Mint {\n    address recipient;\n    //uint256 startupId; // unique id for each startup\n    string tokenURI; \n    bool isActive; // is the startup active?\n  }\n\n  function mintNFT()public onlyOwner returns (uint256) {\n    _tokenIds.increment();\n    mintCount++;\n    uint256 newItemId = _tokenIds.current();\n    _mint(recipient, newItemId);\n    _setTokenURI(newItemId, tokenURI);\n    minting[mintCount] = Mint(msg.sender, tokenURI, true);\n\n    return newItemId;\n}\n /* struct Startup { // the startup attributes\n    address owner; // the owner of the startup\n    uint256 startupId; // unique id for each startup\n    string startupDescription; // The Description of the Startup\n    uint256 startupAmount; //Startup amount requested\n    bool isActive; // is the startup active?\n  }\n  \n  event StartupRequested(\n    address owner, \n    uint256 startupId, \n    string startupDescription, \n    uint256 startupAmount, \n    bool isActive\n    );\n\n  event StartupFunded(\n    address owner, \n    uint256 startupId, \n    string startupDescription, \n    uint256 startupAmount, \n    bool isActive\n    );\n\n  //1. Owner requests a startup\n  function requestFunding(string memory _startupDescription, uint256 _startupAmount) public {\n    //Require a valid description\n    require(bytes(_startupDescription).length > 0);\n    //require a valid startup amount\n    require(_startupAmount > 0);\n    //increment startup count\n    startupCount++;\n    //create the startup\n    startups[startupCount] = Startup(msg.sender, startupCount, _startupDescription, _startupAmount, false);\n    //trigger an evant\n    emit StartupRequested(msg.sender, startupCount, _startupDescription, _startupAmount, false);\n  }\n\n  //2. Funder accepts startup fund request\n  function fundStartup(uint _startupId) public payable {\n    //Get the startup\n    Startup memory _startup = startups[_startupId];\n    //Fetch the owner\n    address _owner = _startup.owner;\n    //Require the startup has a valid id\n    require(_startupId > 0 && _startupId <= startupCount);\n    //Require that there is enough ether to fund the startup\n    require(msg.value >= _startup.startupAmount);\n    //Require that the startup has not been funded already\n    require(!_startup.isActive);\n    //Require that the funder is not the owner\n    require(msg.sender != _owner);\n    //Mark as funded and active\n    _startup.isActive = true;\n    //Update the startup\n    startups[_startupId] = _startup;\n    //Pay the owner by sending the startup amount requested\n    payable(_owner).transfer(msg.value);\n    //Trigger an event  \n    emit StartupFunded(msg.sender, startupCount, _startup.startupDescription, _startup.startupAmount, true);\n  }\n  */\n    \n  \n}\n\n\n",
  "sourcePath": "/Users/hayleealyssalyn.anderson/Develop/repos/oink-dapp-hackathon/OinkDapp/Oink/src/contracts/StartUpDapp.sol",
  "compiler": {
    "name": "solc",
    "version": "0.8.10+commit.fc410830.Emscripten.clang"
  },
  "schemaVersion": "3.4.3",
  "updatedAt": "2022-04-09T19:31:59.166Z",
  "networkType": "ethereum",
  "devdoc": {
    "kind": "dev",
    "methods": {
      "approve(address,uint256)": {
        "details": "See {IERC721-approve}."
      },
      "balanceOf(address)": {
        "details": "See {IERC721-balanceOf}."
      },
      "getApproved(uint256)": {
        "details": "See {IERC721-getApproved}."
      },
      "isApprovedForAll(address,address)": {
        "details": "See {IERC721-isApprovedForAll}."
      },
      "name()": {
        "details": "See {IERC721Metadata-name}."
      },
      "owner()": {
        "details": "Returns the address of the current owner."
      },
      "ownerOf(uint256)": {
        "details": "See {IERC721-ownerOf}."
      },
      "renounceOwnership()": {
        "details": "Leaves the contract without owner. It will not be possible to call `onlyOwner` functions anymore. Can only be called by the current owner. NOTE: Renouncing ownership will leave the contract without an owner, thereby removing any functionality that is only available to the owner."
      },
      "safeTransferFrom(address,address,uint256)": {
        "details": "See {IERC721-safeTransferFrom}."
      },
      "safeTransferFrom(address,address,uint256,bytes)": {
        "details": "See {IERC721-safeTransferFrom}."
      },
      "setApprovalForAll(address,bool)": {
        "details": "See {IERC721-setApprovalForAll}."
      },
      "supportsInterface(bytes4)": {
        "details": "See {IERC165-supportsInterface}."
      },
      "symbol()": {
        "details": "See {IERC721Metadata-symbol}."
      },
      "tokenURI(uint256)": {
        "details": "See {IERC721Metadata-tokenURI}."
      },
      "transferFrom(address,address,uint256)": {
        "details": "See {IERC721-transferFrom}."
      },
      "transferOwnership(address)": {
        "details": "Transfers ownership of the contract to a new account (`newOwner`). Can only be called by the current owner."
      }
    },
    "version": 1
  },
  "userdoc": {
    "kind": "user",
    "methods": {},
    "version": 1
  }
}